:04000000020029329F
:01000B0032C2
:0100130032BA
:01001B0032B2
:0300230002149331
:03008E0002002647
:0300260002009144
:1000910012064875430175440175820112065D43DC
:1000A10090027582001200CFE4F510F51190C200A4
:1000B10075F001E41214EB90162E75F0801215CE36
:0E00C100120F64120902121387120FA880F8A2
:09162E00537461727475700A00B6
:09008200750800750900750A00FB
:1000CF00E582700FF50EF50F907A12E4F5F012132A
:1000DF00CC800FE4F50EF50F90C20075F001E4121D
:1000EF0013CC9003B6E4F022AF82BFF100500302AD
:1000FF00013CEF240FFE240A83F582EE241383F5CF
:10010F0083E4733438343C3C303C303C3030303C4A
:10011F003030010101010101010101010101010162
:10012F00017582002275820122758202225307F027
:10013F007E00BF8005BE00028034BF9005BE000266
:10014F00802CBFA005BE00028024BFB005BE0002F8
:10015F00801CBFC005BE00028010BFD005BE0002CC
:10016F008008BFE00DBE000A8004758201227582EF
:10017F0002227582002285820BAE0B7F0074805E97
:10018F00FC7D00BC8008BD00059003B6E4F0900331
:10019F00B6E0FDE0600302042574805EFB7C00BBCB
:1001AF008005BC000280030203395306F87F00BEAE
:1001BF00F805BF0002800302025674F8B50B1275E2
:1001CF00430B754400754540754601758205020560
:1001DF00AE74FAB50B1275430B7544007545407537
:1001EF0046017582050205AE74FBB50B1275430B04
:1001FF007544007545407546017582050205AE745C
:10020F00FCB50B1275430B754400754540754601DF
:10021F007582050205AE74FEB50B1275430B75445E
:10022F00007545407546017582050205AE74FFB530
:10023F000B0280012275430B7544007545407546CE
:10024F00017582050205AE850B0A9003B0E50AF031
:10025F00AE0A5306F07F00BEF005BF0002800353C5
:10026F000AF074F6B50A127543B07544037545006C
:10027F007546017582050205AE74F0B50A0475085E
:10028F00802274F7B50A028001227480B5081E908F
:10029F0003B074F0F09003B174F7F07543B0754488
:1002AF00037545007546027582060205AE7481B569
:1002BF0008269003B074F0F09003B3E09003B1F010
:1002CF009003B274F7F07543B0754403754500752C
:1002DF0046037582070205AEE50870117543B075C8
:1002EF004403F5457546017582050205AE7401B5E7
:1002FF0008189003B474F7F07543B375440375454C
:10030F00007546027582060205AE7402B5080280BA
:10031F0001229003B574F7F07543B3754403754527
:10032F00007546037582070205AE9003B1E50BF029
:10033F0074C0B50A127543B0754403754500754610
:10034F000275820C0205AE74D0B50A127543B075F2
:10035F00440375450075460275820D0205AE74F1B2
:10036F00B50A127543B0754403754500754602759D
:10037F0082020205AE74F3B50A127543B0754403D9
:10038F007545007546027582020205AE74F0B50A16
:10039F000280030204107480B5080B9003B1E09043
:1003AF0003B3F00508227481B508269003B1E090DD
:1003BF0003B2F09003B3E09003B1F07543B075440E
:1003CF00037545007546037582041205AE75080066
:1003DF0022E50824B3FEE43403FF9003B1E08E82DC
:1003EF008F83F07402B508167543B37544037545D2
:1003FF00007546037582041205AE750800220508C4
:10040F0022850A821200F7AF82BF0202800122907A
:10041F0003B67401F022BD01028001229003B2E500
:10042F000BF07480B50A157543B07544037545001C
:10043F007546037582081205AE0204C67490B50A9C
:10044F00147543B0754403754500754603758209ED
:10045F001205AE806274A0B50A147543B0754403DB
:10046F0075450075460375820A1205AE804974B052
:10047F00B50A147543B07544037545007546037589
:10048F00820B1205AE803074E0B50A147543B07557
:10049F00440375450075460375820E1205AE80172D
:1004AF0074F2B50A127543B075440375450075466D
:1004BF00037582031205AE9003B6E4F022AD82AE4F
:1004CF0083AFF0639002E50C7001228D828E838FD3
:1004DF00F012160EFC54F0600302059D53040FE456
:1004EF00FB30E70302059DC3740F9C74808BF06390
:1004FF00F08095F0500302059DEC240A83F582EC01
:10050F00241483F583E4739D9D597C7C36597C7C40
:10051F007C7C7C59597C36050505050505050505C7
:10052F000505050505050574012DFAE43EFB8F044D
:10053F00750D018A828B838CF0C007C006C005122F
:10054F000613D005D006D007804474012DFAE43E7F
:10055F00FB8F04750D028A828B838CF0C007C00657
:10056F00C005120613D005D006D007802174012DC7
:10057F00FAE43EFB8F04750D038A828B838CF0C0E7
:10058F0007C006C005120613D005D006D0077404A5
:10059F002DFDE43EFEE50CFC24FCF50C0204D5AF6A
:1005AF0082E50925E025E0FE2440F582E43400F5DC
:1005BF0083EFF07F01C3E5469F402EEF2E2440FCD2
:1005CF00E43400FD8F027B001ABAFF011BEA2543BA
:1005DF00FAEB3544F9AB458A8289838BF012160EFC
:1005EF00FA8C828D83F00F80CCAF460FBF04005082
:1005FF0010EF2E2440F582E43400F583E4F00F80F1
:10060F00EB050922AD82AE83AFF0AC0D8C031CEB72
:10061F0060268D828E838FF012160EFBA3AD82AEF5
:10062F00838B82C007C006C005C0041214E2D00439
:09063F00D005D006D00780D422BA
:07172D0000000000000000B5
:1006480075A15575A1AA53B9F843B90675A1FF90CC
:1006580000070208DAAF82E4F545F546F547754824
:1006680092754900754A40F54BF54CF54D754E9617
:10067800754F00755040F551F552F5537554937503
:100688005500755640F557F558F559755A97755BE5
:1006980000755C40EF24FC500122EF75F003A4FFC5
:1006A8002445F98704098705098706EC4D7001225E
:1006B800E54424FC500122E54475F003A49006C9E2
:1006C800730206D502072702077D0207CF8C828DA9
:1006D800838EF012160EFBAA438AF005F07401808F
:1006E8000225E0D5F0FBF4F55D52038C828D838EF4
:1006F800F0EB1215B3EF2451F9875E09875F09877C
:1007080060855E82855F838560F012160EFBE55D6D
:100718005203855E82855F838560F0EB0215B38C9A
:10072800828D838EF012160EF55EAA438AF005F0CC
:100738007401800225E0D5F0FBF55DF4FBE55E521F
:10074800038C828D838EF0EB1215B3EF2451F98759
:100758005E09875F098760855E82855F838560F0B3
:1007680012160EFBE55D4203855E82855F83856018
:10077800F0EB0215B38C828D838EF012160EFBAA55
:10078800438AF005F07401800225E0D5F0FBF55EA0
:1007980042038C828D838EF0EB1215B3EF2451F94E
:1007A80087610987620987638561828562838563BA
:1007B800F012160EFBE55EF45203856182856283B2
:1007C8008563F0EB0215B38C828D838EF012160EC2
:1007D800FBAA438AF005F07401800225E0D5F0FBFE
:1007E800FA42038C828D838EF0EB1215B3EF2451FD
:1007F800F987050987060987078D828E838FF0128E
:10080800160E42028D828E838FF0EA0215B3AE82F5
:10081800AF83C007C006121545D006D0078E828F59
:10082800832212153C7E008E8322858246754730CE
:10083800754831754932754A33754B34754C357581
:100848004D36754E37754F3875503975514175525B
:1008580042755343755444755545755646AC43AD7A
:1008680044AE45E546C4540F2447F987038C828D6E
:10087800838EF0EB1215B374012CF557E43DF5584F
:100888008E59AB4653030FEB2447F98707855782E8
:100898008558838559F0EF1215B374022CFAE43D9C
:1008A800FB8E078A828B838FF0E41215B38C828DBE
:1008B800838EF022AE82AF83EE4F601505A105A1AD
:1008C80005A105A105A105A105A11EBEFF011F8067
:1008D800E722AE82AF83EE4F60159003E8C007C0F1
:1008E800061208BCD006D0071EBEFF011F80E722F3
:03008B00752100DC
:1008F800900181E4F0900182F022C2EA75E280530F
:10090800D17F75E30075EB48E4F5E4F5E5F5E775A7
:10091800E640F5D4F5D675E28975D24075D8FF1250
:1009280008F875E10322AF82E5E35480FE747F5F27
:100938004EF5E322E582600753E2BF53D27F22439C
:10094800E240229000807408F075820012092E534C
:10095800D1FE75820112093C74FB55D14402F5D1D0
:1009680090000F1208DA53D1FD9000FA1208BCC2A9
:10097800D822900181E0FFBF0100500690018174E8
:1009880001F0E5DA30E021E5D120E015E5DA30E1E3
:100998000A900183E4F043D1048006900183740136
:1009A800F043D1017582002275821622900182E0FF
:1009B800F58212092E900183E0F58202093C8582B6
:1009C800258522D48522D6E4F526F527E525C454C5
:1009D8000FFCBC0103EC8001E4F528E4BC09010428
:1009E800FAA823A9248525D5C2D97EC87F00EE4F51
:1009F800602820D925900001C007C006C004C002A5
:100A0800C001C0001208BCD000D001D002D004D070
:100A180006D0071EBEFF011F80D475D50020D9045B
:100A28007582FE2220D903020B4930DE047582004C
:100A380022E5D9540FFFE4BF0E0104FE601390169F
:100A48007775F080C0071215CED00774204FF58255
:100A580022E4BF0A0104FD602CE849700674204FA7
:100A6800F58222C00288028903C3EA94FFEB94FF4F
:100A7800D002500518B8FF0119152674FFB52602D3
:100A88001527020B4CE528700BEA7051BC0D02804B
:100A980003020B3C30DE0475820022BF020D901663
:100AA8008775F0801215CE75820022EE7003ED6016
:100AB8001390169475F080C0071215CED0077420D5
:100AC8004FF58222EF7003020B4C9016A175F0804F
:100AD800C0071215CED00774204FF5822230DE04ED
:100AE80075820022E5226008E4BF0B0104FB800642
:100AF800E4BF030104FBEB600475820022EE70037F
:100B0800ED60139016AE75F080C0071215CED007B1
:100B180074204FF58222BF0305BF0B028026EF60C9
:100B2800239016BB75F080C0071215CED00774202D
:100B38004FF582229016C875F0801215CE7582FE88
:100B48002275D8FF90000FC004C002C001C0001277
:100B580008BCD000D001D002D0040526E4B5260296
:100B68000527AD26AE27C3ED94C8EE9400500302C6
:100B780009ED7582202285822F858330852931856C
:100B88002A32852B339000C81208BCE53145326003
:100B9800118531828532838533F0E41215B3A312AF
:100BA80015B375D70875220075231075242775822B
:100BB800D01209C6E582FA60038A822275D6D075FA
:100BC800D4D075D701900047E0FA7900900046E04C
:100BD800F87F004201EF4202E94A7003020D8CE5FA
:100BE8002F45307003020D8C900040E0FF20E70392
:100BF800020CC3E94A7003020CBD90012CC002C06C
:100C0800011208BC85D4227523107524277582909B
:100C18001209C6AF82D001D002EF60038F8222AEE4
:100C2800DB7F00C3EE99EF9A5006AEDB7F008004AD
:100C380089068A078E2EA82E7F0089058A06EDC3AD
:100C480098FDEE9FFE8D018E02E5314532602A85C2
:100C580031828532838533F012160EFDA312160EEB
:100C6800FEE82DF8EF3EFF8531828532838533F02B
:100C7800E81215B3A3EF1215B37F00C3EF952E50FA
:100C880017EF252FFDE43530FE8F82758300E0FCD9
:100C98008D828E83F00F80E3E52E252FF52FE43526
:100CA80030F530E5DB600E900080E0FFC3E5DB9FA8
:100CB8004003020BFB75D700020D8CE94A70030252
:100CC8000D8C9000C8C002C0011208BCD001D0022F
:100CD800900080E0FE7F00C3E99EEA9F92005004E6
:100CE80089068A078ED7E5D7252FF52FE43530F505
:100CF80030852F82853083A3E0FFBF091B7401650F
:100D08002160067E017F0080047E007F008E2185A1
:100D18002F82853083E521F085D62275231075242E
:100D280027758210C002C0011209C6AF82D001D057
:100D380002EF60038F8222AED77F0089048A05EC18
:100D4800C39EFCED9FFD8C018D02E5314532700399
:100D5800020CC38531828532838533F012160EFE6C
:100D6800A312160EFFACD77D00EC2EFEED3FFF85DB
:100D780031828532838533F0EE1215B3A3EF121555
:100D8800B3020CC39000C81208BCE5D760047F907A
:100D980080027F107522C07523107524278F821258
:100DA80009C6E582FF60038F8222E5D77003F582CA
:100DB80022E5DB7003F5822275821722AE82AF83AB
:100DC8007D00C3ED9543501BED2440FBE43400FC4B
:100DD800ED2EF582E43FF583E493FA8B828C83F061
:100DE8000D80DF229000807408F0F54390163712CA
:100DF8000DC4752934752A00752B40752C00752D86
:100E080001900081120B7EE582FE60038E822290A3
:100E18000088E0900080F090163DE493FF7E00C3C8
:100E2800E5349FE5359E50047582172275820022AD
:100E3800AF8275430890164FC007120DC4D00790B3
:100E48000042EFF0E4F529F52AF52BF52CF52D9065
:100E58000000C007120B7EAE82D007EEFD60038D46
:100E680082228F8212092E9000641208DA7582009D
:100E780022AF8275430890165FC007120DC4D007D1
:100E8800900042EFF0E4F529F52AF52BF52CF52D25
:100E9800900000020B7E754308901657120DC4E4AB
:100EA800F529F52AF52BF52C752D01900081020BFB
:100EB8007E75430890163F120DC4752936752A00B1
:100EC800752B40752C00752D01900081120B7EE565
:100ED80082FF60038F8222901645E493FF7E00C351
:100EE800E5369FE5379E500475821722900083E00F
:100EF800FF7E00900084E0FCE42FFFEC3EFE75438B
:100F08000890163FC007C006120DC4D006D0078F40
:100F180005900046EDF08E07900047EFF0752936F2
:100F2800752A00752B40752C00752D0190008112D3
:100F38000B7EE582FF60038F822275820022754353
:100F480008901647120DC4752938752A00752B406C
:100F5800752C00752D01900081020B7E90018DE4A7
:100F6800F0A3F0A3F0A3F0900191F0A3F0A3F0A3F5
:100F7800F0900195F0A3F0A3F0A3F0900199F0A3ED
:100F8800F0A3F0A3F0900184F0900186F09001871F
:100F9800F0900188F0900189F0A3F0A3F0A3F0226B
:100FA800900184E07001221209B4900187E0FF7477
:100FB8007F5F4490FEEF30E7067DC07F0080047DB0
:100FC800007F008D22E4F523F5248E821209C6E500
:100FD80082701D900187E06480F090019DE5DBF050
:100FE800E0FFE0600B8F0C90000075F0001204CC5D
:100FF800121440E582FF7001227E00C3EE9F50115B
:10100800C007C006121461120185D006D0070E80F1
:10101800EAE509700122E50925E025E0FFBF400067
:10102800500FEF2440F582E43400F583E4F00F809C
:10103800EC7F00AD097E00ED2DFDEE33FEED2DFDBC
:10104800EE33FE8F037C00C3EB9DEC64808EF0636F
:10105800F08095F05024EF2440F582E43400F583C5
:10106800E0FE75433A7544007545408E82C007120C
:1010780008321215CED0070F80B990000A12081650
:10108800E50925E025E0F5D7900188E0FF747F5F4A
:101098004410FEEF30E7067DC07F0080047D007FAE
:1010A800008D227523647524008E821209C6E5829C
:1010B8007008900188E06480FFF0750900227F00C5
:1010C8007E00900064C007C0061208DA900064121F
:1010D80008DA120F6412094BD006D0077D00900081
:1010E80001C007C006C0051208DA12097AE582D0E5
:1010F80005D006D00760060DBD640040E1BD641749
:101108009016D675F080C007C0061215CE1208F8E2
:10111800D006D00702137BC0061209B4120DECAF3B
:1011280082D0069016DF75F080C007C0061215CE73
:10113800D006D0078F047D0074302CF582E43DF58D
:1011480083C007C0061208169016EB75F0801215BA
:10115800CED006D007EF6003021367900089E0FD48
:101168007C007B007A0090018DEDF0ECA3F0EBA3FE
:10117800F0EAA3F090008AE0FD7C007B007A009002
:101188000191EDF0ECA3F0EBA3F0EAA3F090008B53
:10119800E0FD7C007B007A00900195EDF0ECA3F077
:1011A800EBA3F0EAA3F090008CE0FD7C007B007AD2
:1011B80000900199EDF0ECA3F0EBA3F0EAA3F09016
:1011C800165193FDF582C006C005120E38AF82D0C5
:1011D80005D0069016ED75F080C007C006C0051250
:1011E80015CED005D006D0078F037C0074302BF5C0
:1011F80082E43CF583C007C006C0051208169016A5
:10120800EB75F0801215CED005D006D007EF60033D
:10121800021367900182EDF0C006120E9E120EB9FD
:10122800AF82D006EF6003021367E4F53FF5409004
:101238000086E0F582120E79900083E0FB7A009038
:101248000084E0F9E42BFBE93AFA8B3D8A3E78000A
:101258007900C3E8953DE9953E501FE8249EFAE9D8
:101268003401FBE82481F582E93400F583E08A82C1
:101278008B83F008B800DB0980D8900081E0FC7D02
:1012880000C3EC953DED953E4003021363EC249EAC
:10129800FAED3401FB8A828B83A3E0F9B90402805A
:1012A80008B90502800A02134A8A3F8B4002134A92
:1012B8009016F975F080C005C004C003C00212156D
:1012C800CED002D003D004D005853F82854083A3C9
:1012D800A3A3A3A3E0F9B90169853F82854083A34D
:1012E800A3A3A3A3A3E0F9B9035890170875F08046
:1012F800C005C004C003C0021215CED002D003D06E
:1013080004D0058A418B42854182854283A3A3E0AC
:10131800F930E71B900187E9F09001847401F085AA
:101328003F82854083A3A3E0F8900186F08013856F
:101338004182854283A3A3A3E0F8B80205900188FF
:10134800E9F08A828B83E0FA7B008C008D01EA2821
:10135800F8EB39F988048905021289758200229010
:1013680001817402F0758201C007C00612093CD0E1
:1013780006D0070EBE0A0050030210CA8F82227FD1
:101388000010D802803BE5DA30E024900181E0606B
:1013980005E5D120E02B90171B75F0801215CE12B1
:1013A80008F89001817401F01210C6AF8280129083
:1013B8000181E0FEBE01004008120F641208F87FA8
:0413C800168F8222D8
:101637008006000100001200800600020000120070
:1016470081060004000009000005020000000000F8
:1016570080060203090402040009000000000000DC
:10166700210A000000000000810600220000FF00A0
:101677005549465F5452414E5F5354414C4C0A0002
:101687005549465F5452414E5F45300A0055494619
:101697005F5452414E5F45310A005549465F5452E7
:1016A700414E5F45320A005549465F5452414E5FED
:1016B70045330A005549465F5452414E5F45340A47
:1016C700005549465F5452414E5F4445460A00540F
:1016D700494D454F55540A0067657444657644651E
:1016E70073633A000A007365745553424164647228
:1016F7003A0045505F4445534320666F756E640A50
:10170700004D4944492044657669636520666F75D5
:101717006E640A0055534220446576204174746113
:06172700636865640A001E
:1013CC00AC82AD83AEF0FFE50E450F600B5392F788
:1013DC0043930C43C61080095396FD43970353C6A1
:1013EC00EFC29FD29EC29DD29CC2CDC2CC438780FD
:1013FC008C438D448E458F4690C6C075F02DE412FB
:10140C00154EAC82AD830CBC00010DEDC313CC1397
:10141C00CC740F55894420F58943C9A0C3E49CFCC6
:10142C008C8DD28EC299D2AFD2AC9003AEE4F09038
:10143C0003AFF0229003AFE0FF9003AEE0FEC3EFEA
:10144C009E92014006EFC39EFD800774102FFFC3D0
:10145C009EFD8D8222121440E5827003F58222904B
:10146C0003AEE0FF249EF582E43403F583E0FEBF77
:10147C000F067C007D0080070FEFFC3395E0FD909C
:10148C0003AEECF08E8222C0E0C082C083C007C0E5
:10149C0006C005C0D075D00030982C9003AFE02466
:1014AC009EF582E43403F583E599F09003AFE0FFF9
:1014BC00BF0F067D007E0080070FEFFD3395E0FE29
:1014CC009003AFEDF0C298D0D0D005D006D007D0A5
:1014DC0083D082D0E03285829910990280FB22ACB5
:1014EC0082AD83AEF0FFE5104511600B5392FB43C8
:1014FC00931443C620800953967F4397C053C6DF8D
:10150C00C2C7D2C4D2C58C438D448E458F4690C67B
:10151C00C075F02DE412154EAC82AD830CBC0001ED
:10152C000DEDC313CC13CCC3E49CFC8CC2C2C12202
:10153C0010C00280FB85C182228582C110C102804D
:10154C00FB22FB7A20E4FCFDFEFFE5822582F5827E
:10155C00E58333F583E5F033F5F0EB33FB4017DA35
:10156C00E98042E5822582F582E58333F583E5F057
:10157C0033F5F0EB33FBEC33FCED33FDEE33FEEFE8
:10158C0033FFEC9543ED9544EE9545EF95464013AE
:10159C00EC9543FCED9544FDEE9545FEEF9546FF2D
:0715AC00438201DABEEB22CD
:06005800E478FFF6D8FD7C
:100036007907E94400601B7A0190172D78B075A006
:1000460003E493F2A308B8000205A0D9F4DAF27526
:02005600A0FF09
:1015B30020F71130F6138883A88220F509F6A88353
:0B15C3007583002280FEF280F5F0220C
:10005E007800E84400600A798075A000E4F309D8BE
:10006E00FC7830E84403600C7904900080E4F0A33F
:04007E00D8FCD9FAD7
:1015CE00AD82AE83AFF08D828E838FF012160EFC3D
:1015DE0060280DBD00010E7B008C828B83C007C07E
:1015EE0006C005120816AB82AC83D005D006D00714
:1015FE00BBFFD3BCFFD090FFFF2290000A0208165B
:0D00290075816312162AE58260030200262D
:10160E0020F71430F6148883A88220F507E6A88305
:10161E0075830022E280F7E49322E0227582002295
:00000001FF
